{
  "contractName": "Buy",
  "abi": [
    {
      "inputs": [
        {
          "internalType": "uint256",
          "name": "",
          "type": "uint256"
        }
      ],
      "name": "clients",
      "outputs": [
        {
          "internalType": "address",
          "name": "",
          "type": "address"
        }
      ],
      "stateMutability": "view",
      "type": "function",
      "constant": true
    },
    {
      "inputs": [
        {
          "internalType": "uint256",
          "name": "toyID",
          "type": "uint256"
        }
      ],
      "name": "buy",
      "outputs": [
        {
          "internalType": "uint256",
          "name": "",
          "type": "uint256"
        }
      ],
      "stateMutability": "payable",
      "type": "function",
      "payable": true
    },
    {
      "inputs": [],
      "name": "getClients",
      "outputs": [
        {
          "internalType": "address[28]",
          "name": "",
          "type": "address[28]"
        }
      ],
      "stateMutability": "view",
      "type": "function",
      "constant": true
    }
  ],
  "bytecode": "0x608060405234801561001057600080fd5b5061043d806100206000396000f3fe6080604052600436106100345760003560e01c80636db8099514610039578063d96a094a14610064578063f88af21d14610094575b600080fd5b34801561004557600080fd5b5061004e6100d1565b60405161005b9190610300565b60405180910390f35b61007e60048036038101906100799190610357565b610152565b60405161008b9190610393565b60405180910390f35b3480156100a057600080fd5b506100bb60048036038101906100b69190610357565b6101ca565b6040516100c891906103bd565b60405180910390f35b6100d9610200565b6000601c806020026040519081016040528092919082601c8015610148576020028201915b8160009054906101000a900473ffffffffffffffffffffffffffffffffffffffff1673ffffffffffffffffffffffffffffffffffffffff16815260200190600101908083116100fe575b5050505050905090565b60008082101580156101655750601b8211155b61016e57600080fd5b33600083601c8110610183576101826103d8565b5b0160006101000a81548173ffffffffffffffffffffffffffffffffffffffff021916908373ffffffffffffffffffffffffffffffffffffffff160217905550819050919050565b600081601c81106101da57600080fd5b016000915054906101000a900473ffffffffffffffffffffffffffffffffffffffff1681565b604051806103800160405280601c90602082028036833780820191505090505090565b6000601c9050919050565b600081905092915050565b6000819050919050565b600073ffffffffffffffffffffffffffffffffffffffff82169050919050565b600061026e82610243565b9050919050565b61027e81610263565b82525050565b60006102908383610275565b60208301905092915050565b6000602082019050919050565b6102b281610223565b6102bc818461022e565b92506102c782610239565b8060005b838110156102f85781516102df8782610284565b96506102ea8361029c565b9250506001810190506102cb565b505050505050565b60006103808201905061031660008301846102a9565b92915050565b600080fd5b6000819050919050565b61033481610321565b811461033f57600080fd5b50565b6000813590506103518161032b565b92915050565b60006020828403121561036d5761036c61031c565b5b600061037b84828501610342565b91505092915050565b61038d81610321565b82525050565b60006020820190506103a86000830184610384565b92915050565b6103b781610263565b82525050565b60006020820190506103d260008301846103ae565b92915050565b7f4e487b7100000000000000000000000000000000000000000000000000000000600052603260045260246000fdfea2646970667358221220c12cede97b8a97a27b4b8a23bd2c9aa31722f3716a9754f4be70fd29388fa4ab64736f6c63430008130033",
  "immutableReferences": {},
  "source": "// SPDX-License-Identifier: MIT\r\npragma solidity ^0.8.19;\r\n\r\ncontract Buy{\r\n    address[28] public clients;\r\n\r\n    function buy(uint toyID) public payable returns (uint) {\r\n        require(toyID >= 0 && toyID <= 27);\r\n\r\n        clients[toyID] = msg.sender;\r\n        \r\n        return toyID;\r\n    }\r\n\r\n    function getClients() public view returns (address[28] memory) {\r\n  return clients;\r\n}\r\n\r\n}",
  "sourcePath": "e:\\Projects\\BlockChain\\TestTruffle\\BlockChain\\contracts\\Buy.sol",
  "compiler": {
    "name": "solc",
    "version": "0.8.19+commit.7dd6d404.Emscripten.clang"
  },
  "schemaVersion": "3.4.13",
  "updatedAt": "2023-06-10T06:21:49.002Z",
  "networkType": "ethereum",
  "devdoc": {
    "kind": "dev",
    "methods": {},
    "version": 1
  },
  "userdoc": {
    "kind": "user",
    "methods": {},
    "version": 1
  }
}